:020000040800F2
:10000000000400204701000875010008770100087E
:100010007B0100087F010008830100080000000048
:100020000000000000000000000000008701000840
:1000300089010008000000008B0100088D01000804
:1000400067010008670100086701000867010008F0
:1000500067010008670100086701000867010008E0
:1000600067010008670100086701000867010008D0
:1000700067010008670100086701000867010008C0
:1000800067010008670100086701000867010008B0
:1000900067010008670100086701000867010008A0
:1000A0006701000867010008670100086701000890
:1000B0006701000867010008670100086701000880
:1000C0006701000867010008670100086701000870
:1000D000670100083725000867010008670100086C
:1000E0006701000867010008670100086701000850
:1000F0006701000867010008670100086701000840
:10010000670100086701000867010008670100082F
:10011000670100086701000867010008670100081F
:10012000670100086701000867010008670100080F
:10013000DFF80CD002F0E6FC00480047C3010008DD
:1001400028020020704708488047084981F3088842
:1001500007480047FEE7FEE7FEE7FEE7FEE7FEE7AB
:10016000FEE7FEE7FEE7FEE7450100082802002063
:1001700031010008704700BFFEE700BFFEE700BF87
:10018000FEE700BFFEE7704770477047704700000A
:1001900008B50121102001F0DDFB4FF40050ADF84F
:1001A000000010208DF8030003208DF8020069463E
:1001B000644801F0C5F84FF40051624801F06DF950
:1001C00008BD9AB000BF02F06BF8482000F0E6FAD4
:1001D000FFF7DEFF00F064F902F08CF800F0D6FFC4
:1001E000002000F0BFFA4FF4165002F04DF9A7E0DE
:1001F000554802F0E4F8012809D153488278017883
:1002000052A002F0C3FC40F2DC5000F0E3FA1421EB
:10021000012001F001F8054602F01EFA04462046CE
:1002200002F01FFA05464FF066324E4B02F0A2F97B
:10023000074602F029FA0446204602F012FA054663
:100240002A460B4648A002F0A1FC204602F009FA1B
:1002500005462A460B4645A101A802F0A7FC01A8C5
:100260004FF6E0731F221E210090002000F08FFD4A
:1002700042A04FF6E0731F2232210090002000F0D0
:1002800086FD314880780A2190FBF1F085B24FF667
:10029000E0731F222D212820009500F030FF2A480E
:1002A00080780A2190FBF1F201FB120085B24FF633
:1002B000E0731F222D214120009500F020FF0D202A
:1002C0004FF6E0731F222D2100905A2000F017FFF7
:1002D0002CA04FF6E0731F225A210090002000F05E
:1002E00056FD194800780A2190FBF1F085B24FF6CF
:1002F000E0731F224E212820009500F000FF1248D5
:1003000000780A2190FBF1F201FB120085B24FF652
:10031000E0731F224E214120009500F0F0FE0C20DA
:100320004FF6E0731F224E2100905A2000F0E7FEA6
:100330004FF47A7000F04EFA4FF4FA6000F04AFA87
:1003400056E7000000100140000000207B226822D8
:100350003A222564222C2274223A222564227D200E
:100360000000000066664A3F25660A00636F3A2077
:1003700025302E336620200A00000000CEC2B6C809
:1003800000000000CAAAB6C80000000008B501219C
:10039000082001F0DFFA4FF47E40ADF800000320A2
:1003A0008DF8020010208DF803006946FA4800F02D
:1003B000C7FF08BD0021082118E000F080022AB123
:1003C0004FF40042F44B10331A6004E04FF4004243
:1003D000F14B14331A604FF40052EF4B14331A6090
:1003E0001B1F1A604206100E4A1ED1B20029E4DC1F
:1003F000704710B504464FF40060E74914310860B7
:10040000401008602046FFF7D5FF4FF40060E24936
:100410001031086010BD10B504464FF40060DE498D
:10042000143108604010091F08602046FFF7C2FF22
:100430004FF40060D8491031086010BD10B5044673
:100440004FF40060D449143108604010091F08605F
:100450002012FFF7AFFFE0B2FFF7ACFF4FF40060F0
:10046000CD491031086010BD30B505460C46284610
:10047000FFF7BFFF2046FFF7CEFF30BD10B54FF4AA
:100480008050C54914310860642000F0A3F94FF48E
:100490008050C14910310860322000F09BF910BD36
:1004A00010B5FFF773FFFFF7E9FF1120FFF7A1FF7A
:1004B000782000F08FF9B120FFF79BFF0120FFF7B4
:1004C000AAFF2C20FFF7A7FF2D20FFF7A4FFB220E3
:1004D000FFF78FFF0120FFF79EFF2C20FFF79BFF08
:1004E0002D20FFF798FFB320FFF783FF0120FFF7D0
:1004F00092FF2C20FFF78FFF2D20FFF78CFF0120AC
:10050000FFF789FF2C20FFF786FF2D20FFF783FFE1
:10051000B420FFF76EFF0720FFF77DFFC020FFF735
:1005200068FFA220FFF777FF0220FFF774FF842007
:10053000FFF771FFC120FFF75CFFC520FFF76BFFDE
:10054000C220FFF756FF0A20FFF765FF0020FFF7E4
:1005500062FFC320FFF74DFF8A20FFF75CFF2A20D0
:10056000FFF759FFC420FFF744FF8A20FFF753FF2E
:10057000EE20FFF750FFC520FFF73BFF0E20FFF7EF
:100580004AFF3620FFF735FFC820FFF744FFE02081
:10059000FFF72FFF0F20FFF73EFF1A20FFF73BFF6B
:1005A0000F20FFF738FF1820FFF735FF2F20FFF748
:1005B00032FF2820FFF72FFF2020FFF72CFF2220FB
:1005C000FFF729FF1F20FFF726FF1B20FFF723FF60
:1005D0002320FFF720FF3720FFF71DFF0020FFF744
:1005E0001AFF0720FFF717FF0220FFF714FF102064
:1005F000FFF711FFE120FFF7FCFE0F20FFF70BFFD5
:100600001B20FFF708FF0F20FFF705FF1720FFF75C
:1006100002FF3320FFF7FFFE2C20FFF7FCFE29200E
:10062000FFF7F9FE2E20FFF7F6FE3020FFF7F3FE6E
:100630003020FFF7F0FE3920FFF7EDFE3F20FFF7F7
:10064000EAFE0020FFF7E7FE0720FFF7E4FE0320A5
:10065000FFF7E1FE1020FFF7DEFE2A20FFF7C9FEBC
:100660000020FFF7D8FE0020FFF7D5FE0020FFF79F
:10067000D2FE7F20FFF7CFFE2B20FFF7BAFE00202F
:10068000FFF7C9FE0020FFF7C6FE0020FFF7C3FEFC
:100690009F20FFF7C0FEF020FFF7ABFE0120FFF721
:1006A000BAFEF620FFF7A5FE0020FFF7B4FE3A20C1
:1006B000FFF79FFE0520FFF7AEFE2920FFF799FE0A
:1006C00010BDF0B504460D4616461F462A20FFF71A
:1006D00090FE0020FFF79FFEA11CC8B2FFF79BFE13
:1006E0000020FFF798FEB11CC8B2FFF794FE2B2044
:1006F000FFF77FFE0020FFF78EFEE91CC8B2FFF770
:100700008AFE0020FFF787FEF91CC8B2FFF783FEC0
:100710002C20FFF76EFEF0BD30B504460D462B468B
:10072000224629462046FFF7CCFF30BD70B504466F
:100730000D461646681C83B2601C82B229462046CC
:10074000FFF7BFFF3046FFF779FE70BD60B5054685
:100750000E4631462846FFF7DFFFE0B2FFF75BFEAB
:10076000204660BD70B506467F231A460021084624
:10077000FFF7A7FF2C20FFF73CFE002408E0002530
:1007800003E03046FFF75AFE6D1C802DF9D3641C40
:10079000802CF4D370BD0000000C01404FF0E0212C
:1007A000096921F004014FF0E0221161C21700EB4A
:1007B0005272C2F3C702234B1A701946097801EB33
:1007C0004102C2EBC1114FF6FF7202EAC1011E4A9B
:1007D0001180704701461C4A12884A434FF0E023BB
:1007E0005A6100229A6101221A6100BF4FF0E02293
:1007F000106900F001021AB100F48032002AF5D02D
:1008000000224FF0E0231A619A61704701460D4AB9
:1008100012784A434FF0E0235A6100229A61012284
:100820001A6100BF4FF0E022106900F001021AB116
:1008300000F48032002AF5D000224FF0E0231A6144
:100840009A617047060000200800002030B501467C
:1008500001F01F04C1F34513CA0AE50205EB431575
:100860001544A8B230BD2DE9F04706460F46904624
:100870009A46002445464FEA4800C0F103094AE081
:100880007A1991B2321990B25246FFF74FFF7A1996
:1008900091B2321B90B25246FFF748FF7A1B91B2D9
:1008A000321990B25246FFF741FF7A1B91B2321BC8
:1008B00090B25246FFF73AFF3A1991B2721990B2CC
:1008C0005246FFF733FF3A1991B2721B90B252466B
:1008D000FFF72CFF3A1B91B2721990B25246FFF704
:1008E00025FF3A1B91B2721B90B25246FFF71EFFD2
:1008F000B9F1000F05DA042000FB049000F10609AD
:1009000007E0601B042101FB009000F10A09681E4A
:1009100085B2601C84B2AC42B2DBAC4237D17A19EA
:1009200091B2321990B25246FFF700FF7A1991B294
:10093000321990B25246FFF7F9FE7A1B91B2321982
:1009400090B25246FFF7F2FE7A1B91B2321B90B280
:100950005246FFF7EBFE3A1991B2721990B2524625
:10096000FFF7E4FE3A1991B2721B90B25246FFF7BC
:10097000DDFE3A1B91B2721990B25246FFF7D6FED5
:100980003A1B91B2721B90B25246FFF7CFFEBDE800
:10099000F0872DE9FF4F83B080468946494640469F
:1009A000FFF7BAFE0598A0EB08050698A0EB09062C
:1009B000002D02DB0120029003E04FF0FF30029097
:1009C0006D42002E02DB0120019003E04FF0FF306A
:1009D000019076424FEA450A4FEA460BB54219DDCF
:1009E000ABEB0504002712E049464046109AFFF79A
:1009F0009DFE002C05DBA4EB0A04019848441FFA75
:100A000080F95C44029840441FFA80F87F1CAF4292
:100A1000EADD18E0AAEB0604002712E0494640464A
:100A2000109AFFF783FE002C05DBA4EB0B04029861
:100A300040441FFA80F85444019848441FFA80F952
:100A40007F1CB742EADD07B0BDE8F08F2DE9F8431F
:100A500005460C4616461F46DDF820804EF67D7092
:100A60000090A81982B2234621462846FFF791FF3D
:100A700042F6651004F1010CBC441FFA8CF305EB3F
:100A8000060CACF1010C1FFA8CF204F1010C1FFAF8
:100A90008CF105EB060CACF1010C00901FFA8CF008
:100AA000FFF777FF42F665100090E01983B2A819AE
:100AB00082B2E01981B22846FFF76BFF4EF67D70D7
:100AC0000090E01983B22A4621462846FFF761FFCD
:100AD00004F1010CBC44ACF1020C1FFA8CF305F1DB
:100AE000010CB444ACF1020C1FFA8CF204F1010CBD
:100AF0001FFA8CF105F1010C1FFA8CF0CDF8008083
:100B0000FFF747FFBDE8F8832DE9F84305460C469B
:100B100016461F46DDF82080B8F1000F39D14EF699
:100B20007D700090A81982B2234621462846FFF71F
:100B300030FF42F6651004F1010CBC441FFA8CF33F
:100B400005EB060CACF1010C1FFA8CF204F1010C60
:100B50001FFA8CF105EB060CACF1010C00901FFAAA
:100B60008CF0FFF716FF42F665100090E01983B293
:100B7000A81982B2E01981B22846FFF70AFF4EF6A3
:100B80007D700090E01983B22A4621462846FFF77F
:100B900000FFB8F1010F39D142F665100090A81995
:100BA00082B2234621462846FFF7F3FE4EF67D70BB
:100BB00004F1010CBC441FFA8CF305EB060CACF1FC
:100BC000010C1FFA8CF204F1010C1FFA8CF105EBF9
:100BD000060CACF1010C00901FFA8CF0FFF7D9FE67
:100BE0004EF67D700090E01983B2A81982B2E01928
:100BF00081B22846FFF7CDFE42F665100090E0195D
:100C000083B22A4621462846FFF7C3FEB8F1020FF9
:100C100039D14FF6FF700090A81982B223462146C1
:100C20002846FFF7B6FE4FF6FF7004F1010CBC44F6
:100C30001FFA8CF305EB060CACF1010C1FFA8CF2D9
:100C400004F1010C1FFA8CF105EB060CACF1010C60
:100C500000901FFA8CF0FFF79CFE4FF6FF7000909B
:100C6000E01983B2A81982B2E01981B22846FFF7D1
:100C700090FE4FF6FF700090E01983B22A4621469D
:100C80002846FFF786FEBDE8F883F8B504460D4612
:100C900016461F4644F208202B463246294600904D
:100CA0002046FFF776FE48F210406A1C93B291B2DC
:100CB000621C009090B23246FFF76BFE44F20820AF
:100CC0003B462246294600902046FFF762FE48F246
:100CD0001040631C9AB26B1C99B2631C009098B2CE
:100CE0003B46FFF756FE4FF6FF703B46324639460D
:100CF00000902046FFF74DFE4FF6FF703B46324610
:100D0000294600903046FFF744FEF8BDF8B5064688
:100D10000F4614461D464FF6FF703B4622463946A5
:100D200000903046FFF735FE4FF6FF702B463246F7
:100D3000394600903046FFF72CFE48F210406A1EFC
:100D400093B291B2721C009090B22246FFF721FE3E
:100D500044F208202B462246294600903046FFF7F1
:100D600018FE48F21040631E9AB27B1C99B2631EB3
:100D7000009098B22B46FFF70CFE44F208202B4659
:100D80002246394600902046FFF703FEF8BD2DE9C4
:100D9000F84F0746884693469A46DDF82890009714
:100DA000B3E099F8000080283DDA99F800600D2E34
:100DB00005D1009F08F110001FFA80F830E0202EC6
:100DC00003DDA6F1200086B200E00026002422E028
:100DD00000251CE004EB0610E849085C802129414D
:100DE000084040B108EB040291B27A1990B25A4619
:100DF000FFF79CFC09E0D34507D008EB040291B251
:100E00007A1990B25246FFF791FC681CC5B2082DC2
:100E1000E0DB601CC4B2102CDADB07F1080087B2FB
:100E200009F1010971E0002668E006EB0610D449DB
:100E300011F8100099F8001088425DD106EB0610F9
:100E4000CF4901EB4000407899F80110884253D116
:100E500000244FE0002520E006EB0610C84901EB16
:100E60004000801C10F8141080202841014041B13E
:100E700008EB040291B27A1990B25A46FFF756FC79
:100E800009E0D34507D008EB040291B27A1990B279
:100E90005246FFF74BFC681CC5B2082DDCDB002571
:100EA00024E006EB0610B64901EB4000801C01214E
:100EB00001EB4401405C80212941084048B108EB26
:100EC000040291B27A19083290B25A46FFF72EFC0A
:100ED0000AE0D34508D008EB040291B27A1908322F
:100EE00090B25246FFF722FC681CC5B2082DD8DB31
:100EF000601CC4B2102CADDB701C86B2322E94DBA9
:100F000009F1020907F1100087B299F800000028E2
:100F10007FF447AFBDE8F88F2DE9F05F06468846BD
:100F200093469A46DDF82890E2E099F80000802880
:100F300035DA99F80070202F03DDA7F1200087B281
:100F400000E00027002522E000241CE005EB07104C
:100F50008A49095C80202041014041B108EB05022B
:100F600091B2321990B25A46FFF7E0FB09E0D3453F
:100F700007D008EB050291B2321990B25246FFF742
:100F8000D5FB601CC4B2082CE0DB681CC5B2102D78
:100F9000DADB09F1010906F1080086B2A8E00027B2
:100FA0009EE007EB870000EB4710764911F8100030
:100FB00099F8001088427CD107EB870000EB4710BE
:100FC000704901EB4000407899F801108842F2D155
:100FD000002580E0002423E007EB870000EB4710AA
:100FE000684901EB4000801C05EB4501405C802115
:100FF0002141084040B108EB050291B2321990B28C
:101000005A46FFF793FB09E0D34507D008EB0502EA
:1010100091B2321990B25246FFF788FB601CC4B2FD
:10102000082CD9DB002426E007EB870000EB4710F3
:10103000544901EB4000801C05EB4501491C405C14
:1010400080212141084048B108EB050291B23219D4
:10105000083290B25A46FFF769FB0AE0D34508D040
:1010600008EB050291B23219083290B25246FFF7EE
:101070005DFB601CC4B2082CD6DB002427E007EB24
:10108000870000EB47103F4901EB4000801C05EB57
:101090004501891C405C80212141084050B108EB8A
:1010A000050291B23219103290B25A46FFF73EFB58
:1010B0000BE013E0D34508D008EB050291B23219DA
:1010C000103290B25246FFF731FB601CC4B2082CBC
:1010D000D5DB681CC5B2182DFFF67CAF781C87B233
:1010E000142FFFF65EAF09F1020906F1180086B26F
:1010F00099F8000000287FF418AFBDE8F09F2DE9B3
:10110000F05F0746884692469946002531E0002464
:101110002BE01D490A9801EBC01000EB850010F888
:1011200004B000261DE08020304100EA0B0050B1E1
:1011300008EB050291B207EBC402324490B252466A
:10114000FFF7F4FA0BE0CA4509D008EB050291B2AB
:1011500007EBC402324490B24A46FFF7E7FA701C2C
:10116000C6B2082EDFDB601CC4B2042CD1DB681CC5
:10117000C5B2202DCBDBBDE8F09F0000B0340008E5
:10118000224200082A4B0008A13A000800B587B0A7
:1011900001214FF4017000F0DDFB4FF4004000F03E
:1011A0003DFB0220ADF8180000208DF81B00032045
:1011B0008DF81A0006A92C4800F0C2F80020019012
:1011C0008DF808008DF809004FF46020039000208E
:1011D000049001208DF8140001A9244800F003FEBA
:1011E0000121224800F02BFE204800F04AFE00BFFB
:1011F0001E4800F04BFE0028FAD11C4800F050FEBB
:1012000000BF1A4800F051FE0028FAD1012117480A
:1012100000F055FE07B000BD2DE9F04105460C4633
:101220000026072301222946104800F074FE0027FB
:1012300013E001210D4800F042FE00BF02210B48DF
:1012400000F08FFF0028F9D0084800F0CBFE0644DC
:101250000520FFF7BFFA781CC7B2A742E9DBB6FB4F
:10126000F4F080B2BDE8F0810008014000240140A4
:1012700010B50446C649601A8C422FD009DCC54817
:10128000204480B1B0F5806F16D0B0F5006F4AD120
:101290001BE0B0F5806F2AD0B0F5006F30D0B0F50C
:1012A000406F40D135E00121042000F06DFB0021AA
:1012B000042000F069FB37E00121082000F064FB06
:1012C0000021082000F060FB2EE00121102000F03A
:1012D0005BFB0021102000F057FB25E001212020BE
:1012E00000F052FB0021202000F04EFB1CE0012109
:1012F000402000F049FB0021402000F045FB13E0B6
:101300000121802000F040FB0021802000F03CFB08
:101310000AE00121080200F037FB00214FF4807041
:1013200000F032FB00E000BF00BF10BD10B501218E
:10133000084600F029FB0021012000F025FB10BD2C
:101340002DE9F0410246002500260020002300245C
:10135000002791F803C00CF00F0591F803C00CF0C2
:10136000100CBCF1000F03D091F802C04CEA050547
:1013700091F800C0BCF1000F31D0146800202BE0C0
:101380004FF0010C0CFA00F3B1F800C00CEA0306B0
:101390009E4220D183004FF00F0C0CFA03F7BC43A0
:1013A00005FA03FC4CEA040491F803C0BCF1280FD1
:1013B00006D14FF0010C0CFA00FCC2F814C00AE090
:1013C00091F803C0BCF1480F05D14FF0010C0CFAA5
:1013D00000FCC2F810C0401C0828D1D31460B1F83A
:1013E00000C0BCF1FF0F34DD546800202EE000F196
:1013F000080C4FF0010808FA0CF3B1F800C00CEA31
:1014000003069E4221D183004FF00F0C0CFA03F724
:10141000BC4305FA03FC4CEA040491F803C0BCF198
:10142000280F05D100F1080C08FA0CF8C2F8148056
:1014300091F803C0BCF1480F07D100F1080C4FF040
:10144000010808FA0CF8C2F81080401C0828CED316
:101450005460BDE8F0814FF6FF7101800221817078
:101460000421C17070470246002093680B400BB105
:10147000012000E0002070470146886880B2704774
:1014800002460020D3680B400BB1012000E0002091
:1014900070470146C86880B270470161704741617A
:1014A00070470AB1016100E041617047C160704757
:1014B0004FF480320A43826181618261826982696C
:1014C000704702460020344B18684FF6807318406E
:1014D00040EA02100843304B186070472F49C8613A
:1014E0007047F0B50A4600230024002100252A4E4B
:1014F0007168C0F3034583B200F44016B6F5401F8F
:1015000008D121F07061244E766826F07066224F73
:101510007E6012E000F48016B6F5801F06D1032627
:1015200006FA05F4A14341F0706106E0460D36016C
:1015300003FA06F6B14341F0706122B1460D36015F
:1015400003FA06F63143144E7160F0BD30B5002247
:101550008B071C0F0F2303FA04F20F4B08338C1078
:1015600053F8243093430C4C08348D1044F8253044
:1015700023468C1053F824308C07240F00FA04F40F
:101580002343054C08348D1044F8253030BD00004D
:101590000014014000F8FEBF00000140000020429E
:1015A00031490143314A1160704770B50021002371
:1015B0000F22C47804B32D4C246804F4E064C4F50D
:1015C000E064210AC1F10403CA40447804FA03F13B
:1015D0008478144021430901254C0678A1550478EC
:1015E00004F01F050124AC4005786D11AD0005F134
:1015F000E025C5F8004109E0047804F01F05012446
:10160000AC401C4D0678761145F8264070BD1A4A4C
:101610000A400243154B1B1F1A60704739B1134A29
:10162000121D12680243114B1B1D1A6006E00F4A7F
:10163000121D126882430D4B1B1D1A60704704284F
:1016400008D14FF0E021096941F004014FF0E02298
:10165000116107E04FF0E021096921F004014FF02A
:10166000E0221161704700000000FA050CED00E077
:1016700000E400E080E100E080FFFF1FDE4800683A
:1016800040F00100DC49086008464068DB4908403A
:10169000D949486008460068D9490840D6490860D9
:1016A0000846006820F4802008600846406820F45E
:1016B000FE004860002088607047CF49096821F427
:1016C0008031CD4A11601146096821F480211160F2
:1016D000B0F5803F03D0B0F5802F0ED106E0C649AB
:1016E000096841F48031C44A116007E0C2490968C1
:1016F00041F4A021C04A116000E000BF00BF704764
:1017000010B501460022002300204A11012A02D10F
:10171000B94C236806E0022A02D1B74C236A01E0E3
:10172000B54C636A01F01F02012494401C400CB1C7
:10173000012000E0002010BD38B5002000900024FA
:10174000002500BF3120FFF7DBFF05460098401C55
:1017500000901DB90098B0F5A06FF3D13120FFF7CC
:10176000CFFF08B1012400E00024204638BD014627
:101770000020A14A106820F0F80040EAC100106083
:101780007047A04908607047024600209A4B58688D
:1017900020F47C1042EA01031843974B58607047CD
:1017A00098490866704701460020934A506820F027
:1017B00003000843506070478F48406800F00C00F9
:1017C0007047014600208C4A506820F0F000084322
:1017D0005060704701460020874A506820F4E0605E
:1017E00008435060704701460020834A506820F447
:1017F000605040EAC1005060704729B17E4A527A79
:1018000002437D4B5A7204E07B4A527A82437A4B00
:101810005A7270477B49D8310860704701460020F2
:10182000754A506820F440400843506070470021DA
:10183000714A20321170704A82F82010012802D0BB
:1018400004280AD104E001216B4A2032117005E01E
:101850000521694A2032117000E000BF00BF7047C7
:101860006949086070476449096A0143624A116224
:101870007047654944390860704730B5002100223F
:10188000002400235C4D6D6805F00C0121B1042992
:1018900005D0082923D105E05C4D056022E05B4DB1
:1018A00005601FE0544D6D6805F47012022505EBCC
:1018B0009242514D6D6805F480341CB9544D554326
:1018C00005600BE04C4D6D6805F400351DB1504DC1
:1018D0005543056002E04D4D5543056002E04B4D18
:1018E000056000BF00BF444D6D6805F0F0010909B7
:1018F000484D6B5C0568DD4045603F4D6D6805F403
:10190000E061090A434D6B5C4568DD4085603A4DF6
:101910006D6805F46051C90A3E4D6B5C4568DD4059
:10192000C560354D6D6805F44041890B3A4D6B5CDF
:10193000C568B5FBF3F5056130BD29B12E4A526982
:1019400002432D4B5A6104E02B4A526982432A4BD1
:101950005A61704729B1284A92690243264B9A611D
:1019600004E0254A92698243234B9A61704729B16A
:10197000214AD2690243204BDA6104E01E4AD2694F
:1019800082431D4BDA61704729B11B4AD26802437A
:10199000194BDA6004E0184AD2688243164BDA60C9
:1019A000704729B1144A12690243134B1A6104E0CB
:1019B000114A12698243104B1A617047124940392B
:1019C000086070470F49C86470470B49C871704779
:1019D0000948406A40F080700749486270470146F4
:1019E0000020054A92680A400AB1012000E0002068
:1019F0007047014988727047001002400000FFF8EC
:101A0000FFFFF6FE000042428004424200127A00CC
:101A100000093D000A0000201A00002010B504460D
:101A2000D749601A8C422BD006DCD648204498B1A6
:101A3000B0F5806F38D119E0B0F5806F2AD0B0F5DD
:101A40006C4F31D101218803FFF79EFF00214FF435
:101A50008040FFF799FF28E001214804FFF7A1FF2C
:101A600000214FF40030FFF79CFF1EE001218804A5
:101A7000FFF797FF00214FF48020FFF792FF14E05B
:101A80000121C804FFF78DFF00214FF40020FFF76C
:101A900088FF0AE001210805FFF783FF00214FF4CA
:101AA0008010FFF77EFF00E000BF00BF10BD2DE9F2
:101AB000F04786B005460E460024A24600BF00BF90
:101AC00000272F462C8A4CF6FF700440F088044310
:101AD0002C82AC894EF6F3100440B088318908435B
:101AE000718908430443AC81AC8A4FF6FF4004403F
:101AF000B0890443AC8201A8FFF7BFFEA248874229
:101B000002D1DDF810A001E0DDF80CA00AEBCA005C
:101B100000EB0A1031688900B0FBF1F86420B8FBD3
:101B2000F0F004012009642101FB1089322000EB50
:101B30000910B0FBF1F000F00F0004432C8106B057
:101B4000BDE8F0874FF4E131016000218180C18060
:101B500001810C21418100218181704710B502462D
:101B60000020108A4FF2FF0318400B884C88234353
:101B70008C882343CC8823431843108210BD002156
:101B8000018041808180C180704721B1828942F407
:101B90000052828104E082894DF6FF731A408281EF
:101BA0007047F0B5034600240026002500201846A3
:101BB000C1F3421401F01F06012707FA06F5012CB4
:101BC00001D10C3004E0022C01D1103000E01430BF
:101BD0001AB107682F43076002E00768AF43076048
:101BE000F0BD1AB1838A0B43838202E0838A8B4360
:101BF00083827047028A4FF6F0731A400282028A8B
:101C00000A430282704782894FF2FF731A40828131
:101C100082890A438281704721B1828942F002029F
:101C2000828104E082894FF6FD731A4082817047F9
:101C3000028A4FF6DF731A400282028A0A43028246
:101C4000704721B1028A42F48042028204E0028A93
:101C50004BF6FF731A4002827047C1F3080282807C
:101C6000704701468888C0F308007047818941F0B9
:101C7000010181817047028BD2B20283028B42EA5A
:101C8000012202837047028B02F47F420283028B9F
:101C90000A430283704721B1828A42F02002828285
:101CA00004E0828A4FF6DF731A408282704721B1C6
:101CB000828A42F01002828204E0828A4FF6EF7339
:101CC0001A408282704721B1828A42F008028282E1
:101CD00004E0828A4FF6F7731A4082827047828A44
:101CE0004FF6FB731A408282828A0A4382827047CF
:101CF00021B1828A42F00202828204E0828A4FF697
:101D0000FD731A40828270470246002013880B4000
:101D10000BB1012000E000207047CA4302807047E9
:101D200070B502460B460024002100250020C3F3B5
:101D3000421503F01F01012606FA01F1012D02D11F
:101D40009689314006E0022D02D1168A314001E029
:101D5000968A31401C12012606FA04F41688344093
:101D600011B10CB1012000E0002070BD10B50022BF
:101D700000230A1201249440A3B2DC43048010BD66
:101D8000004C004000BCFFBF0038014010B50446C5
:101D9000F748204430B1B0F5806F0DD0B0F5C05F8A
:101DA0001ED113E001214802FFF7EEFD00214FF4A0
:101DB0000070FFF7E9FD14E001218802FFF7E4FD60
:101DC00000214FF48060FFF7DFFD0AE00121C80326
:101DD000FFF7DAFD00214FF40040FFF7D5FD00E0EA
:101DE00000BF00BF10BD30B5024600200023506880
:101DF000E04C20400D790C6844EA052420435060F3
:101E00009068DD4C2040D1E902542C434D7944EADE
:101E1000450420439060D06A20F470000C7C641E5E
:101E20001C43E3B240EA0350D06230BD00210160A0
:101E3000017141718160C16001210174704721B15C
:101E4000826842F00102826003E0826822F00102AF
:101E50008260704721B1826842F48072826003E040
:101E6000826822F480728260704710B50023CBB282
:101E70001AB144681C43446002E044689C434460D7
:101E800010BD816841F00801816070470146002063
:101E90008A6802F008020AB1012000E000207047C1
:101EA000816841F0040181607047014600208A6822
:101EB00002F004020AB1012000E00020704721B1C5
:101EC000826842F4A002826003E0826822F4A002E9
:101ED00082607047014600208A6802F480020AB1DD
:101EE000012000E00020704710B50A4600210023C1
:101EF000416821F46041531E41EA4331416010BD05
:101F000021B1426842F40062426003E0426822F478
:101F1000006242607047F0B504460D460020002183
:101F2000092D11DDE068A5F10A0606EB4607072634
:101F300006FA07F18843A5F10A0606EB460603FAFE
:101F400006F10843E0600CE0206905EB4507072631
:101F500006FA07F1884305EB450603FA06F1084344
:101F60002061072A0FDA606B561E06EB86071F26D4
:101F700006FA07F18843561E06EB860605FA06F1B7
:101F80000843606322E00D2A0FDA206BD61F06EBB0
:101F900086071F2606FA07F18843D61F06EB86063A
:101FA00005FA06F10843206310E0E06AA2F10D068D
:101FB00006EB86071F2606FA07F18843A2F10D06F5
:101FC00006EB860605FA06F10843E062F0BD21B192
:101FD000826842F48012826003E0826822F48012F8
:101FE000826070470146C86C80B2704763480068E1
:101FF000704721B1426842F48062426003E0426867
:1020000022F480624260704721B1426842F48052FB
:10201000426003E0426822F48052426070470A4600
:102020000021816821F4E04111438160704721B1B2
:10203000826842F40042826003E0826822F4004237
:102040008260704721B1826842F40212826003E02C
:10205000826822F4021282607047014600208A687A
:1020600002F400120AB1012000E000207047F0B530
:1020700004461546002000220026092911DDE068EB
:10208000A1F10A0707EB470C072707FA0CF2904368
:10209000A1F10A0707EB470703FA07F21043E060D4
:1020A0000CE0206901EB410C072707FA0CF2904382
:1020B00001EB410703FA07F210432061A06BC0F364
:1020C0000156EF1C06F1010CA7EB0C0707EB870C80
:1020D0001F2707FA0CF29043EF1C06F1010CA7EB47
:1020E0000C0707EB870701FA07F21043A063F0BD66
:1020F00010B50A4600210023816B21F44011531EC4
:1021000041EA0351816310BD4250704702465018A6
:10211000806A80B270470A4600214168184B194016
:102120001143416070474162826270470A46002154
:10213000416821F01F0111434160704740B10F49D0
:102140004439096841F400010C4A443A116007E03F
:102150000A494439096821F40001084A443A1160E7
:1021600070470246002013680B405BB101200AE073
:1021700000DCFEBFFFFEF0FFFDF7F1FF4C24014045
:10218000FFFD3FFF00207047CA430260704770B5F3
:1021900002460020002300240B125568CEB205EA47
:1021A000060415681D4015B10CB1012000E00020A7
:1021B00070BD00220A12D343036070470CB50020A3
:1021C000019000904748006840F48030454908601D
:1021D00000BF4448006800F4003000900198401CA3
:1021E0000190009818B90198B0F5A06FF1D13D4861
:1021F000006800F4003010B10120009001E00020E0
:1022000000900098012844D13748006840F0100041
:10221000354908600846006820F003000860084659
:10222000006840F0020008602E4840682D49486070
:102230000846406848600846406840F4806048604E
:102240000846406820F47C1048600846406840F426
:10225000E81048600846006840F08070086000BFE1
:102260002048006800F000700028F9D01D48406840
:1022700020F003001B4948600846406840F0020017
:10228000486000BF1748406800F00C000828F9D1EA
:1022900001E000BFFEE70CBD10B5FFF78FFF10BDDA
:1022A00010B51048006840F001000E49086008466B
:1022B00040680E4908400B494860084600680C49D0
:1022C0000840084908600846006820F4802008603B
:1022D0000846406820F4FE00486000208860FFF750
:1022E000DBFF10BD00100240002002400000FFF89C
:1022F000FFFFF6FE08B501211020FFF72BFB4FF47E
:102300008040ADF8000010208DF8030003208DF808
:10231000020069465348FFF713F810215148FFF7B0
:10232000BCF808BD08B54FF48040ADF80000482067
:102330008DF8030069464B48FFF702F808BD08B561
:102340004FF48040ADF8000010208DF8030003200A
:102350008DF8020069464348FEF7F2FF08BD70B5EC
:102360000025002427E000BF4FF480413D48FFF7DF
:102370007AF80028F8D02820FEF748FA4FF4804178
:102380003848FFF770F801280ED100BF4FF48041A4
:102390003448FFF768F80128F8D0C4F1070101209C
:1023A0008840C0B2054304E0C4F107010120884021
:1023B0008543601CC4B2082CD5DB284670BD10B51F
:1023C0000446FFF7BCFF4FF480412648FFF767F84B
:1023D0001220FEF7FFF94FF480412248FFF75DF825
:1023E0001E20FEF713FAFFF79DFF4FF480411D48B2
:1023F000FFF739F888BB00BF4FF480411948FFF759
:1024000032F80028F8D000BF4FF480411548FFF79C
:102410002AF80128F8D0FFF7A2FF2070FFF79FFFEE
:102420006070FFF79CFFA070FFF799FFE070FFF767
:1024300096FF2071FFF783FF4FF480410948FFF7B3
:102440002CF8207861780844A1780844E1780844A1
:102450002179884202D1012010BD01E00020FBE774
:102460000020F9E70010014070B504460D46E1B2C6
:102470003E48FFF7F2FB00BF80213C48FFF744FCD9
:102480000028F9D0204670BD10B586B00446012161
:102490000420FFF75FFA01218803FFF75BFA0121AF
:1024A0000846FFF757FA4FF40070ADF81400032008
:1024B0008DF8160018208DF8170005A92C48FEF796
:1024C0003FFF4FF48060ADF8140004208DF8170032
:1024D00005A92748FEF734FF01940020ADF8080055
:1024E000ADF80A00ADF80C00ADF810000C20ADF806
:1024F0000E0001A91D48FFF7DAFA01211B48FFF77A
:1025000044FB40211948FFF708FC012240F2255105
:102510001648FFF746FB25208DF8000003208DF8B4
:1025200001008DF8020001208DF803006846FFF7D6
:102530003CF806B010BD10B540F225510B48FFF72E
:10254000EFFB70B10948FFF78CFBC4B22146074886
:10255000FFF783FB00BF40210448FFF7D5FB0128AC
:10256000F9D140210148FFF7D8FB10BD00380140E8
:10257000000801402DE9FE4F81EA030404F0004405
:1025800021F0004100944FF0000B23F0004350EA8B
:1025900001045ED052EA03045BD0C3F30A54C1F3D2
:1025A0000A552C44A4F2F3340194A0FB0254C1F365
:1025B000130141F48011C3F3130343F4801301FBAF
:1025C000024400FB034E840A970A44EA815447EA16
:1025D0008357A4FB076802958D0A05FB07854FEA20
:1025E000932C04FB0C542705029D4FEA065847EA3A
:1025F0001637B5EB08056EEB070C870E920E47EA0F
:10260000811742EA8312A7FB0201B6EB0B0164EBD0
:1026100000042B0D43EA0C335E1844EB1C50DA46E1
:102620005146E7FB0201C5F313044FEA0B3343EABB
:1026300014534FEA0432019C43EA0603A4F10C044C
:102640000294009CCDE900B400F0C7F803B0BDE8E7
:10265000F08F00200146F9E796230022114600F092
:102660007FB800F0004230F000400AD0C10D01F503
:102670006071C0F3160042EA0151C20840071143DD
:10268000704700200146704701F0004330B421F04C
:10269000004150EA010206D00A0DA2F56072C1F3B2
:1026A0001301002A02DC30BC00207047440F44EACA
:1026B000C104C100E01830BC00EBC25000F047B8C4
:1026C00030B50B46014600202022012409E021FA02
:1026D00002F59D4205D303FA02F5491B04FA02F5FF
:1026E0002844151EA2F10102F1DC30BD2DE9F05F96
:1026F0000546002092469B46884606468146402471
:102700001BE0284641464746224600F01CFA534645
:102710005A46C01A914110D311461846224600F07D
:1027200003FA2D1A67EB01084F46224601200021CB
:1027300000F0FAF917EB00094E41201EA4F1010444
:10274000DFDC484631462A464346BDE8F09F002973
:10275000A8BF7047401C490008BF20F00100704727
:1027600010B4B0FA80FC00FA0CF050EA010404BF87
:1027700010BC704749B1CCF1200421FA04F411FADD
:102780000CF118BF012121430843A3EB0C01CB1D21
:102790004FEA00614FEA102042BF002010BC704792
:1027A00000EBC35010440029A4BF10BC7047401C6C
:1027B000490008BF20F0010010BC704710B5141E7E
:1027C00073F1000408DA401C41F1000192185B41EA
:1027D0001A4301D120F0010010BD2DE9F04D9246C1
:1027E0009B4611B1B1FA81F202E0B0FA80F22032D8
:1027F000904600F099F904460F4640EA0A0041EA83
:102800000B0153465A46084313D0114653EA0100C0
:1028100019D0C8F14002504600F095F905460E4621
:1028200050465946424600F07FF9084305D0012042
:1028300004E020463946BDE8F08D0020054346EA15
:10284000E0762C4337430A986305E40AA0EB0800BE
:102850000022FD0A44EA47540A3002D5002001460E
:10286000E9E7010510196941DDE9084500196941E9
:10287000BDE8F04DA2E72DE9FE4F804681EA030056
:10288000C00F0C46009021F0004123F00045B8EB4A
:102890000200A94105D24046214690461C460B46FF
:1028A000024623F00040104347D0270DC7F30A002B
:1028B000C3F30A510290401A019040286BDAC3F327
:1028C000130040F4801B0098924620B10023D2EB05
:1028D000030A63EB0B0B01985946C0F140025046C6
:1028E00000F022F906460D4650465946019A00F07E
:1028F0003AF910EB08006141002487EA115284EA9A
:10290000E7731A4340D0009A62B3019A012A4FEA52
:10291000075215DC001B61EB02014FF0004202EA96
:102920000752CDE90042001C41F5801132462B468A
:10293000FFF753FF03B0BDE8F08F40462146F9E7AB
:10294000001B61EB0201001C41F5801300185B4184
:102950002018A2F5001747EB030140EAD570B6191D
:102960006D4111E06D084FEA360645EAC0754FEA41
:102970000752001B61EB0201001C41F58011490860
:102980004FEA30000019514132462B4603B0BDE8F2
:10299000F04FFFF713BF0098012240000023D0EB57
:1029A000020263EBE073009821464FEAE074B8EB53
:1029B000000061EB0401E9E783F000435BE781F08D
:1029C000004158E72DE9F04D81EA030404F0004B83
:1029D00021F0004514464FF0000A23F0004150EA70
:1029E000050220D054EA01021DD0C5F30A57024661
:1029F000C5F31303C1F31300C1F30A5640F4801565
:102A000043F48013A7EB0608101BD64608F2FD38E6
:102A100073EB050002D308F1010801E092185B4155
:102A2000B8F1000F03DA00200146BDE8F08D002068
:102A30004FF48011064684460EE0171B73EB050722
:102A400005D3121B63EB050306434CEA010C49084E
:102A50004FEA300092185B4150EA0107EDD152EA8B
:102A6000030012D082EA040083EA0501084305D07E
:102A7000101BAB4106D20122002306E000224FF0DA
:102A8000004302E06FF0010253101AEB06004CEB1A
:102A9000085110EB0A0041EB0B01BDE8F04DFFF7C8
:102AA0008DBEC1F30A52C1F3130140F2FF3341F46A
:102AB00080119A4202DA00200146704740F2334307
:102AC0009A42A2F2334202DC524200F03CB800F0DB
:102AD0002BB8000030B5041E71F1000404DB4FF088
:102AE0000044404264EB0101141E73F1000405DB55
:102AF0001C464FF00043524263EB0403994208BF67
:102B0000904230BD064C074D06E0E06840F00103FE
:102B100094E8070098471034AC42F6D3FDF70CFB5D
:102B2000A8500008C8500008202A04DB203A00FA08
:102B300002F1002070479140C2F1200320FA03F314
:102B4000194390407047202A04DB203A21FA02F012
:102B50000021704721FA02F3D040C2F120029140D7
:102B6000084319467047202A06DBCB17203A41FA62
:102B700002F043EAE07306E041FA02F3D040C2F10A
:102B80002002914008431946704700000FB4054BDE
:102B900010B503A9044A029800F0EEF810BC5DF8E5
:102BA00014FB000069240008200000200FB4084B2B
:102BB00010B504A902AA039800F0DEF8044602A9A1
:102BC000002000F070FC204610BC5DF814FB0000F3
:102BD000A734000802E008C8121F08C1002AFAD171
:102BE00070477047002001E001C1121F002AFBD18D
:102BF000704700002DE9FF5F82B00021DDE904305D
:102C0000020DDDF840B0034318D044F61050A2F294
:102C1000FF3242431514119801281FD0A5EB0B0079
:102C2000401C5FEA000A4FF000064E4FDFF8389173
:102C3000B046504615D5CAF1000413E0119801249E
:102C40004AA3012801D16FEA0B010298119AC0E949
:102C50000031C0E9024206B0BDE8F09FCBF10000B0
:102C6000DFE704460021404A491842EB0450CDE911
:102C7000001012E0E00707D032463B464046494686
:102C8000FFF778FC8046894632463B461046194697
:102C9000FFF770FC06460F466410002CEAD1DDE910
:102CA0000401DDE90023BAF1000F06DAFFF762FC48
:102CB00042464B46FFF75EFC05E0FFF783FE4246C7
:102CC0004B46FFF77FFE04460E460022284BFFF7D7
:102CD00001FF03D84FF0FF30014607E00022254BEB
:102CE00020463146FFF7C7FDFFF7DBFE102409E061
:102CF000002C0ADB0A220023FFF7F8FC039B30328A
:102D00001A55641E50EA0102F2D1641C039AC4F100
:102D100011031444119A012A03D0012208430DD152
:102D20000AE0084304D000204FF0110B119072E725
:102D3000A3EB0B056D1E0DE05B4504DD4FF00002BB
:102D400005F1010504E003DA4FF00002A5F10105E9
:102D5000002AECD002981199C0E90231C0E900457F
:102D600079E70000000014400000F03F3000000050
:102D70000000F0430000E03F2DE9FF4F95B09B4677
:102D80008946064600250FE2252877D100242746EC
:102D9000F84A0121059400E0044316F8013F203B66
:102DA00001FA03F01042F7D130782A2811D06FF0E1
:102DB0002F033078A0F13002092A16D8059A44F082
:102DC000020402EB820203EB42021044761C0590DF
:102DD000EFE759F8042B0592002A03DA504244F435
:102DE0000054059044F00204761C30782E2816D149
:102DF00016F8010F44F004042A280DD06FF02F02BA
:102E00003078A0F13003092B09D807EB870302EBD8
:102E10004303C718761CF3E759F8047B761C307817
:102E20006C280FD006DC4C2817D068280DD06A28F3
:102E300014D104E0742810D07A280FD10DE044F4A6
:102E400000140AE044F4801401E044F44014727861
:102E5000824202D104F58014761C761C30786628F4
:102E60000BD013DC582877D009DC002875D0452812
:102E7000F6D04628F4D047281AD19DE118E06328FF
:102E800035D0642879D0652812D195E1702873D0A7
:102E900008DC6728F1D069286FD06E280DD06F2824
:102EA00006D1B5E073282CD0752875D0782874D059
:102EB0005A46179990476D1C75E1C4F302500228D9
:102EC00009D003280DD0D9F8001004280DD00D60CA
:102ED00009F1040967E1D9F80010EA17C1E90052C5
:102EE000F6E7D9F800100D80F2E70D70F0E719F859
:102EF000041B8DF8001000208DF80100EA46012027
:102F000003E059F804AB4FF0FF3061074FF00001C8
:102F100002D40DE008F101018846B9420FDA80457C
:102F2000F8DB1AF808100029F4D108E008F10101D3
:102F300088468142FADB1AF808100029F6D1059874
:102F40005B46A0EB080721463846179A00F094FA32
:102F5000284400EB080507E04DE029E10DE01AF8F0
:102F6000010B5A4617999047B8F10108F7D25B4612
:102F700021463846179A13E142E00A220092C4F330
:102F800002524FF0000A022A08D059F804CB032A53
:102F90004FEAEC710AD00DE029E02AE009F10701BF
:102FA00021F00702F2E802C1914609E00FFA8CFC19
:102FB0004FEAEC71042A03D14FFA8CFC4FEAEC7112
:102FC000002907DA0A460021DCF1000C61EB02015E
:102FD0002D2202E0220504D52B228DF804200122A7
:102FE00003E0E20701D02022F7E7904659E00A21EA
:102FF00002E010220DE010214FF0000A00910BE0DA
:1030000010224FF0000A44F004040827009203E065
:1030100008224FF0000A0092C4F30252022A05D09F
:1030200059F804CB0021032A08D009E009F107016F
:1030300021F00702F2E802C1914605E01FFA8CFC7C
:10304000042A01D10CF0FF0C4FF00008220728D50C
:10305000702806D0009B83F0100353EA0A0305D0C2
:103060000EE040228DF80420012208E05CEA010213
:1030700006D030228DF804208DF8050002229046FB
:10308000009B83F0080353EA0A030AD15CEA0102B9
:1030900001D1620705D530228DF804204FF00108D8
:1030A0007F1E582804D034A003900EA802900DE093
:1030B00036A0F9E753466046009AFFF717FB8446AF
:1030C0000398825C0298401E029002705CEA010044
:1030D000F0D1029806A9081A00F1200A600702D56B
:1030E00024F4803400E00127574502DDA7EB0A00F5
:1030F00000E0002000EB0A01009005984144401ACE
:103100000590E00306D45B462146179A059800F027
:10311000B3F90544002706E001A85A46C05D179997
:1031200090476D1C7F1C4745F6DBE0030CD55B46E2
:103130002146179A059800F09FF9054404E03020D5
:103140005A46179990476D1C0099481E0090002917
:10315000F5DC08E0029802995A460078491C029171
:10316000179990476D1CBAF10001AAF1010AF1DC30
:1031700065E100000928010030313233343536373B
:1031800038396162636465660000000030313233B3
:103190003435363738394142434445460000000053
:1031A00000F058F90544761C307800287FF4ECAD27
:1031B00019B02846BDE8F08F620700D4062709F150
:1031C000070222F0070CFCE80223E14603F0004866
:1031D0005FEA080C02D00FF2702C0DE05FEA045C8D
:1031E00002D50FF2682C07E05FEAC47C02D00FF230
:1031F000602C01E0AFF2700C4FF0FF3823F0004379
:10320000CDF850C065280CD006DC452809D04628EA
:103210001DD047283DD13DE0662818D067287ED1D3
:1032200038E00021112F01DB112000E0781CCDE9EE
:10323000000106A90EA8FFF7DDFCDDE90F010E9ADB
:1032400003910021009207F1010A04914DE04FF033
:1032500000400097CDE9011006A90EA8FFF7CAFCAF
:10326000DDE90F0203920E9B11990022DDF80CA0FC
:103270000093049211B9791C00EB010AB7EB0A0024
:1032800004D4C0F1FF3007F1010A0490AAEB070053
:10329000019044E0012F00DA01270021112F01DD08
:1032A000112000E03846CDE9000106A90EA8FFF77D
:1032B000A1FCDDE90F010E9A039100210491009217
:1032C000BA4621070CD40399514500DA8A46BAF16F
:1032D000010F05DD009AAAF10101515C302908D0E7
:1032E000B84202DA10F1040F06DA0121CDE901102B
:1032F00015E0AAF10101E9E7002805DC0499014481
:103300000491AAEB000102E0411C514500DD8A4610
:103310000499401A401C01904FF000400290200791
:1033200004D40198504501DBCDF8048000208DF8CD
:103330004F0002980DF14F07B0F1004F25D02B2020
:103340000E9002984FF0020800280CDA40420290DA
:103350002D200E9007E00A210298FFF7B1F93031D5
:10336000029007F8011DB8F10001A8F10108F2DC94
:1033700002980028EFD1791E0E980870307800F07E
:10338000200040F0450007F8020D12A8C01B00F114
:1033900007081498007800B1012000EB0A01019899
:1033A00001EBE07105984144401A401E0590E0038E
:1033B00006D45B462146179A059800F05DF805444F
:1033C0001498007818B15A46179990476D1CE0037D
:1033D00024D55B462146179A059800F04DF8054420
:1033E0001CE00498002807DBDDE90301884203DDC7
:1033F0000098405C179901E0179930205A46904791
:10340000049805F10105401C04900198401E0190AC
:1034100004D12E205A46179990476D1CBAF100012D
:10342000AAF1010ADDDC05E017F8010B5A461799ED
:1034300090476D1CB8F10001A8F10108F4DC5B466F
:103440002146179A0598ABE62D0000002B000000DE
:10345000200000002DE9F041044600251E461746D5
:10346000880404D405E039462020B0476D1C641E52
:10347000F9D52846BDE8F0812DE9F0410446002544
:103480001E469046C80301D5302700E02027880457
:1034900004D505E041463846B0476D1C641EF9D599
:1034A0002846BDE8F0810A68531C0B601070704715
:1034B000000000000000000000000000000000000C
:1034C000001010101010101010100000101000004C
:1034D00000006C6C242400000000010000000000CB
:1034E0000024242424FE48484848FC9090909000F2
:1034F00000103C54929050381412129254781000DC
:103500000000225C94A8481010242A52548800001D
:10351000000030484850206E54948C888A74000013
:10352000000030301010000000000000000000001B
:103530000004081010202020202020101008040073
:10354000008040202010101010101020204080001B
:103550000000000010543810385410000000000023
:1035600000000010101010FE1010101000000000DD
:10357000000000000000000000000000101020000B
:1035800000000000000000FE00000000000000003D
:10359000000000000000000000000000101000000B
:1035A0000000040408081010202040408080000023
:1035B0000000384482828282828282824438000003
:1035C000000010701010101010101010107C00006F
:1035D00000003844828204081020408284FC0000ED
:1035E0000000384482020438040202824438000099
:1035F0000000040C141424244444FE04040E0000AF
:103600000000FC808080B8C48202028284780000BE
:1036100000003C428280B8C482828282443800002A
:1036200000007E42820404080808101010100000F8
:103630000000384482824438448282824438000048
:103640000000384482828282463A02824438000076
:10365000000000001010000000001010000000002A
:1036600000000000101000000000001010200000FA
:1036700000000000061860806018060000000000CE
:10368000000000000000FE0000FE0000000000003E
:1036900000000000C0300C020C30C0000000000030
:1036A000003844828202040810101000101000003C
:1036B00000003844829AAAAAAAAAAA9680423C008C
:1036C000000010101028282844447C4444EE0000D8
:1036D0000000FC424242427C4242424242FC000024
:1036E00000003C44828080808080828244380000D8
:1036F0000000F844424242424242424244F8000042
:103700000000FC444240447C4440404244FC0000F1
:103710000000FC444240447C4440404040F00000F3
:103720000000344C828080808E8484844C3400007D
:103730000000EE444444447C4444444444EE0000CD
:1037400000007C101010101010101010107C0000E1
:1037500000003E080808080808080888887000006B
:103760000000EE44484850605048484444EE000091
:103770000000E040404040404040404244FC0000E7
:103780000000C6446C6C6C545454444444EE000035
:103790000000CE4464646454544C4C4C44E4000037
:1037A0000000384482828282828282824438000011
:1037B0000000F844424242447840404040E000006B
:1037C0000000384482828282828282BA443C0200B3
:1037D0000000F048444444487048444444E6000033
:1037E00000003C44828040300C0202824478000099
:1037F00000007C54921010101010101010380000AF
:103800000000EE44444444444444444444380000EA
:103810000000EE44444444282828281010100000DA
:103820000000EE44545454545454282828280000CE
:103830000000EE44442828101028284444EE0000DC
:103840000000EE4444282828101010101038000002
:1038500000007E44840808102020408284FC000080
:10386000001C1010101010101010101010101C0060
:103870000000EE445454FE545454282828280000D4
:103880000070101010101010101010101010700098
:10389000003048840000000000000000000000002C
:1038A0000000000000000000000000000000FE001A
:1038B00000402000000000000000000000000000A8
:1038C0000000000000007884047C84848C76000072
:1038D0000000C040404058644242424264580000E8
:1038E00000000000000038448080808044380000E0
:1038F00000000C040404344C848484844C3600009E
:10390000000000000000788484FC8080847800003F
:10391000000018242020F820202020202070000003
:103920000000000000003A444478807C82827C00E1
:103930000000C040404058644444444444EE000009
:10394000000010100000301010101010103800008F
:1039500000001010000030101010101010906000C7
:103960000000C04040405C485060504844EE0000B9
:10397000000030101010101110101010103900003D
:10398000000000000000ACD29292929292D6000009
:1039900000000000000058E44444444444EE0000A9
:1039A0000000000000003844828282824438000017
:1039B000000000000000D864424242645840E00029
:1039C000000000000000364C8484844C34040E0057
:1039D0000000000000006C3020202020207000003B
:1039E000000000000000788884601884447800009B
:1039F000000000202020F820202020202418000093
:103A0000000000000000C64242424242463A000026
:103A1000000000000000EE44442828281010000098
:103A2000000000000000EE44445454282828000000
:103A3000000000000000EE442810102844EE0000B2
:103A4000000000000000EE444428281010A0C00030
:103A50000000000000007E448810204284FC00002A
:103A6000000C1010101010601010101010100C002E
:103A70000010101010101010101010101010100066
:103A800000C0202020202018202020202020C0003E
:103A900000000000000000728C0000000000000028
:103AA0000000000000001FE000003FF000003FF0B9
:103AB00000001FE0000180060003C00F0003C00FDC
:103AC0000003C00F0003C00F0003C00F0003C00FAE
:103AD0000003C00F0003C00F00030003000000003C
:103AE0000000000000000000000300030003C00FFE
:103AF0000003C00F0003C00F0003C00F0003C00F7E
:103B00000003C00F0003C00F0003C00F00018006B8
:103B100000001FE000003FF000003FF000001FE049
:103B20000000000000000000000000800000018094
:103B3000000003800000078000000780000007806D
:103B40000000078000000780000007800000078059
:103B500000000780000007800000018000000000D6
:103B6000000000000000000000000180000007804D
:103B70000000078000000780000007800000078029
:103B80000000078000000780000007800000078019
:103B900000000380000001800000008000000000A1
:103BA0000000000000001FE000003FF00000FFF0F8
:103BB0000001FFE0000000060000000F0000000F01
:103BC0000000000F0000000F0000000F0000000FB9
:103BD0000000000F0000000F00001FE300007FF84E
:103BE00000007FF800001FE0000300000003C00099
:103BF0000003C0000003C0000003C0000003C000B9
:103C00000003C0000003C0000003C00000018000EA
:103C100000001FF000003FF800003FFC00001FFE06
:103C2000000000000003FF800001FFC00000FFC093
:103C300000007F80000000180000003C0000003CF5
:103C40000000003C0000003C0000003C0000003C84
:103C50000000003C0000003C00007F8C0001FFE001
:103C60000001FFF000007F800000000C0000003C1D
:103C70000000003C0000003C0000003C0000003C54
:103C80000000003C0000003C0000003C0000001868
:103C900000007F800000FFC00001FFC00003FF8024
:103CA000000000000000000000020001000300030B
:103CB000000380070003C00F0003C00F0003C00F04
:103CC0000003C00F0003C00F0003C00F0003C00FAC
:103CD0000003C00F0003C00F00031FE300007FF8C4
:103CE00000007FFC00001FE0000000030000000F48
:103CF0000000000F0000000F0000000F0000000F88
:103D00000000000F0000000F0000000F0000000F77
:103D10000000000700000003000000010000000098
:103D20000000000000001FFC00003FF800003FF012
:103D300000001FE0000180000003C0000003C0007D
:103D40000003C0000003C0000003C0000003C00067
:103D50000003C0000003C00000031FE000007FF864
:103D600000007FF800001FE0000000030000000FCB
:103D70000000000F0000000F0000000F0000000F07
:103D80000000000F0000000F0000000F0000000600
:103D900000003FE000007FF00000FFF00001FFE0C6
:103DA0000000000000001FFC00003FF800003FF092
:103DB00000001FE0000180000003C0000003C000FD
:103DC0000003C0000003C0000003C0000003C000E7
:103DD0000003C0000003C00000031FE000007FF8E4
:103DE00000007FFC00001FE0000300030003C00F81
:103DF0000003C00F0003C00F0003C00F0003C00F7B
:103E00000003C00F0003C00F0003C00F00018006B5
:103E100000001FE000003FF000003FF000001FE046
:103E2000000000000007FFE00003FFC00001FF8862
:103E30000000FF1800000038000000780000007843
:103E40000000007800000078000000780000007892
:103E5000000000780000007800000018000000005A
:103E600000000000000000000000001800000078C2
:103E70000000007800000078000000780000007862
:103E80000000007800000078000000780000007852
:103E900000000038000000180000000800000000CA
:103EA0000000000000001FE000003FF000003FF0B5
:103EB00000001FE0000180060003C00F0003C00FD8
:103EC0000003C00F0003C00F0003C00F0003C00FAA
:103ED0000003C00F0003C00F00031FE300007FF8C2
:103EE00000007FFC00001FE0000300030003C00F80
:103EF0000003C00F0003C00F0003C00F0003C00F7A
:103F00000003C00F0003C00F0003C00F00018006B4
:103F100000001FE000003FF000003FF000001FE045
:103F20000000000000001FE000003FF000003FF034
:103F300000001FE0000180060003C00F0003C00F57
:103F40000003C00F0003C00F0003C00F0003C00F29
:103F50000003C00F0003C00F00031FE300007FF841
:103F600000007FFC00001FE0000000030000000FC5
:103F70000000000F0000000F0000000F0000000F05
:103F80000000000F0000000F0000000F00000006FE
:103F900000001FE000003FF000007FF00000FFE0A5
:103FA0000000000000000000000000000000000011
:103FB0000000000000000000000000000000000001
:103FC00000000000000000000000000000000000F1
:103FD00000000000000000000000000000000000E1
:103FE00000000000000000000000000000000000D1
:103FF0000000000000007800000078000000780059
:104000000000780000007800000078000000000048
:1040100000000000000000000000000000000000A0
:104020000000000000000000000000000000000090
:104030000000000000000000000000000000000080
:104040000000070000000F8000000F8000000F80BC
:104050000000070000000000000000000000000059
:104060000000000000000000000000000000070049
:1040700000000F8000000F8000000F80000007008C
:104080000000000000000000000000000000000030
:104090000000000000000000000000000000000020
:1040A0000000000000000000000000000000000010
:1040B0000007C006000FE0060000000C00301818D2
:1040C00000301818003018300030183000301860F8
:1040D000003008C00007C0C0000FE08000000000F2
:1040E0000000000FE0000607C000063018000C308A
:1040F00018000C301800183018003030180030301C
:10410000180060000000C00FE000C007C000000001
:10411000000000000000000000000000000000009F
:10412000000000000000000000000000000000008F
:104130000000000000000000000700E0000887FC0D
:1041400000088E03000898018007180080003000E6
:1041500000003000000070000000600000006000FF
:1041600000006000000060000000600000007000BF
:10417000000030000000300000003800000018018E
:1041800000000C03000007FC000001F0000000002C
:10419000000000000000000000000000000000001F
:1041A000000000000000000000000000000000000F
:1041B00000000000000000000000000000000000FF
:1041C00000000000000000000000000000000000EF
:1041D00000000000000000000000000000003FF0B0
:1041E00000007FF000007FE00000FFC00000000042
:1041F00000000000000000000000000000000000BF
:1042000000000000000000000000000000000000AE
:10421000000000000000000000000000000000009E
:104220000000B2BB00007FFC0080008001000100A4
:1042300003400520091011082104410481000100F8
:1042400001000100C8CB01000100010001000100D4
:104250000100028002800440044008200820101061
:10426000200840048002D4DA020002000400FFFEAD
:10427000080008401040304057FC9040104010406B
:10428000104010401FFE1000CBFB084008400A40C1
:104290001258126832C833485E4892481248125881
:1042A00012421202120211FE1000D3D002000200CC
:1042B000FFFE040004000FF0081018102FF0481043
:1042C00088100FF00810081008500820D5E2008070
:1042D0002040104017FC00100210F12010A01040E8
:1042E00010A0111012081408280047FE0000B8F6AC
:1042F0000100010002800440082010102108C106BE
:1043000001000100010001000100010001000100A5
:10431000C9CF02000200020002000200020003F8FE
:104320000200020002000200020002000200FFFE82
:104330000000C3C70900088008BC1204120432043C
:1043400032045204920412041204120412041204DD
:1043500012141208C0B40100010001007FFC01002A
:10436000111009100920FFFE0380054009203118B3
:10437000C10601000100B5BD0004FF84080410243B
:1043800022244124FFA408A4082408247F2408240C
:1043900008040F84F8144008CAB1000800087C081B
:1043A000440845FE440844087C084488444844487E
:1043B00044087C08440800280010CEC2000023F8FE
:1043C0001208120883F84208420813F8100027FC6C
:1043D000E4A424A424A424A42FFE0000B6C8010051
:1043E00000803FFE222022203FFC2220222023E0CA
:1043F00020002FF02410422041C08630380ECAAA77
:10440000000027F81408140887F84408440817F82F
:1044100011202120E9242528233021202FFE00000F
:10442000B6C8010000803FFE222022203FFC22204F
:10443000222023E020002FF02410422041C08630AB
:10444000380EB5E708800880088011FE110232049A
:1044500034205020912811241224122214221020DA
:1044600010A01040D7D37FF0002000400080010052
:104470000200FFF802000200020002000200020037
:104480000E0000000000C8AB0100010002800440E3
:10449000082010102FE8C106010001001FF00100E4
:1044A000010001007FFC0000B6AF004000407C40EE
:1044B000004001FC0044FE44204420442084488401
:1044C0004484FD04450402280410BCBC10201020C4
:1044D000102013FEFC201020102015FC18843088BA
:1044E000D04810501020105051882606CAF50100FF
:1044F0000120011001107FFC0380054005400920C8
:104500001110210841040102010001000100D2BA8A
:104510000080404027F8114001408278424816A8A8
:104520001AD023502220422042500288000000006E
:10453000BEA73FE020203FE020203FE00000FDF844
:1045400085088508FDF885088508FDF885080000C0
:104550000000B2E200084F8828880AA88AA84AA862
:104560000AA82AA82AA842284508848888881038DA
:1045700000000000CAD44050204820400FF80040FE
:10458000E04027402240224022202A2833A82E182B
:10459000000800000000B3CC00001BF0E210221065
:1045A00023F0F800200033F068806080A3F02080C2
:1045B000208027F800000000D0F2020001003FF840
:1045C00020002FF02020224021803FF820882090DA
:1045D00040804080838000000000D1D5200010F88A
:1045E0007E20444028F87E8848A850A864A848A89F
:1045F00072A884501888610800000000C9AB100040
:1046000010003FE0404080807FF042104210421096
:104610007FF04000400840083FF800000000CCEE6A
:1046200020802FF8208027F0F41027F0241027F0A6
:10463000241027F03410CFF80220041000000000EE
:10464000B3E404000200FFF80800104020207FF0CF
:10465000089008800880088010882088C0780000B2
:104660000000CEC4040002000200FFF81040104019
:104670000880088005000200050008803060C0182E
:1046800000000000D7D604000200FFF88008800870
:104690003FC0008001000200FFF80200020002009B
:1046A0000E0000000000CFD43FE0202020203FE09B
:1046B000202020203FE008804890289028A00880F3
:1046C0000880FFF800000000CABE00003FE00000C4
:1046D00000000000FFF802001240122022104208E1
:1046E000820802000E0000000000CDBC7FF84008E8
:1046F000440847C84848548843084CC87338408821
:104700004C08430840887FF800000000C6AC0080D9
:104710002080208020803FF02000200020003FC02B
:104720002040204020404040804000000000B4A5D0
:1047300020403840484091F07D50555055507D50B4
:1047400055F054407C40545057F88C08000000004D
:10475000C3FE2220222027F8FA2027F0241027F079
:104760003410E7F020802FF821402220EC180000C0
:104770000000CAE440804140F22044108BE8A000D1
:10478000F78824A827A834A8E7A824A8248825B84F
:1047900000000000C8EB0800040004000200020052
:1047A00005000500088008801040104020204010BF
:1047B000800800000000C8AB02000200050008806D
:1047C00010402020DFD8020002001FC002000200BB
:1047D0000200FFF800000000B3CC00001BF0E21064
:1047E000221023F0F800200033F068806080A3F0EE
:1047F0002080208027F800000000BCBC20802080A2
:104800002080F7F02080208027E03220E220214025
:10481000208021402220EC1800000000CAF5020090
:10482000024002200200FFF807000A800A801240BE
:104830002220421082080200020000000000D6A7D9
:1048400002000200FFF8020002007FE0102010408A
:10485000088005000200050018C0E03800000000D4
:10486000B3D62080208023F0F880208027F82820ED
:104870003020E7F82020222021202020E0E0000046
:104880000000D7A8020002007FF004000400FFF837
:10489000080010003FE0002000401C800300008062
:1048A00000000000D7A201004080200017F0008027
:1048B00080804080008017F0108020802080408021
:1048C0004FF800000000C5FA204024402440F4487E
:1048D0002450276024403440E440244024402548AC
:1048E0002648E43800000000B7A20200222022106F
:1048F00044007FF8040008000FE0142024404280A8
:10490000810006C0383800000000B3C900A0009044
:1049100000807FF8408040907C90449044A044A068
:10492000444858A84118820800000000B9A60100B8
:104930000100F90023F02110211021102110211075
:104940003910C21002100410086000000000D2C626
:104950000000002000780CE47904516810307E607B
:1049600019981A3C2FE448E4083800300060000031
:10497000D1A100000120012003FC6220342004208A
:1049800003FC240021B021202220323E18000FE039
:104990000000D4F10000000010FC1304110C3DF8DD
:1049A000703E10D015907CF0503E18101BFE023067
:1049B00000200000CFEE0000000003FE00607C40FD
:1049C00012FC11041106113611241F44794400C051
:1049D000009C01860000C4BF000000000FE03C18EE
:1049E000200820043E04600460047E046004200C5F
:1049F00020081FF001800000B6CC0000080011FC68
:104A0000103E3EF82D8C2904490409043E8C50FCCC
:104A100010881EC811FC100E0000B0B40000004049
:104A2000006012FE13023A427F4410C41BFE3C9801
:104A30007190113011A00078004C0000C8B7000040
:104A4000004000F878C41F8C313821EC2126413A0F
:104A50007DE2272225FA3D26012401040000B6A8A4
:104A60000000010001705FFC700420042FF80100B9
:104A70001100113821C431003F0063E040380000CC
:104A8000B3A4000000000818086008C00B001E0056
:104A9000181C7FF01000118010E01838098E0F00EC
:104AA0000000B0B400000040006012FE13023A4261
:104AB0007F4410C41BFE3C987190113011A0007807
:104AC000004C0000B7B50000000007F80600240005
:104AD00014F8078C04042408261825F0647C64C2AA
:104AE00020801FC00000BBD8000000001FF030185D
:104AF0002008278C2C44284428442CC427842004D4
:104B0000300C1FF8038000000000000000000000CF
:104B10000000000000000000000000000000000095
:104B200000000000000000000000B4BF0000000012
:104B30000000020100063FC00C3FE0180300100215
:104B4000003336603726203E66301C6430186420FF
:104B500031FEE03F1FC01C0C00000C000704003EAB
:104B600007F00001C000000000000000000000008D
:104B700000000000C9AB00000000000001FE0003BF
:104B8000E3000703000C03001C3F003BFFC03F3065
:104B9000600C30200C30200C10200C10600FFFC077
:104BA000083F000800000800600E3FE007FC00001E
:104BB0000000000000000000000000000000CCEE3B
:104BC00000000000000000030000FFE00C07F00CF4
:104BD00006000CFF803FF0E01FC0600CFE300CCCE4
:104BE0003004F83004FF2004C0201FFE603EC06087
:104BF00001FFF001FFF000606000400000000000D5
:104C00000000000000000000B3E40000000000000D
:104C100000200000300007FFF03FFFE00300000627
:104C200001800C01800801C01807E00FFE7007E04A
:104C3000000206000604000404000404000C0670D0
:104C40000C07E00000000000000000000000000071
:104C50000000B2E200000000000000003039FC302B
:104C60001FCC300706B00F06F01907B03137B0314E
:104C700036F01F27F00167F001E5F001E1F0004197
:104C8000F00CF8B03CD830008C30008030000000D0
:104C9000000000000000000000000000CAD4000076
:104CA000000000000803600C03700C0330003FE0BC
:104CB000003F800801003C0180047F80047D800C5F
:104CC00000800C10C00C10C00C18400C1C600F7E33
:104CD000600670300000300000000000000000009E
:104CE000000000000000CEC400000000C00000E092
:104CF0000000700001FFE01FFFC01801000003006A
:104D0000000600000E00001C000E18000730000115
:104D1000E00000F00000FC00018F000303C002016E
:104D2000E0000000000000000000000000000000A3
:104D3000D7D6000000000000002000003F0031FF37
:104D4000E03FC02038003030FE2033C66010020043
:104D5000000C00001800001800000C0007FFE03FE6
:104D6000FFE0000400000C00000C00000000000048
:104D700000000000000000000000CFD40000000090
:104D8000000007FF000F03C00C00401FF860180070
:104D9000600800400E01C007FF0000000001840011
:104DA0000184001987800F8CE0078C2000CC000361
:104DB000FFE01FFFC0000000000000000000000036
:104DC00000000000CABE0000000000000E00001F2E
:104DD000FFC0007FE00000000000000000000000B5
:104DE00000003FC03FFFE000300000300000300016
:104DF0000613000C13C00C18F01818001818000047
:104E00000000000000000000000000000000CDBC19
:104E100000000000000007FF000F03801CC0C01945
:104E2000FC6011C66033062033E63036FF30301F99
:104E3000F030703030FC30339F3036002010E060AE
:104E4000187C400E01C003FF000038000000000085
:104E50000000000000000000C6AC000000000000E0
:104E6000081800180800180800180800180C201F5F
:104E7000FFF01FF80018000010000010F8001FFEDF
:104E8000001E0300100300100300100300100300B5
:104E900018020000000000000000000000000000F8
:104EA0000000CFD400000000000007FF000F03C087
:104EB0000C00401FF8601800600800400E01C00799
:104EC000FF000000000184000184001987800F8C1E
:104ED000E0078C2000CC0003FFE01FFFC0000000B3
:104EE000000000000000000000000000CABE00003A
:104EF000000000000E00001FFFC0007FE000000067
:104F0000000000000000000000003FC03FFFE00084
:104F100030000030000030000613000C13C00C18E5
:104F2000F018180018180000000000000000000031
:104F3000000000000000B4A5000000000000060111
:104F4000800FC1801E6180304FC020CFE0078D30C0
:104F50003FC9303379303379303FFB3037FF20326F
:104F600067E03FE3803FE3C03263603267F0304F79
:104F7000B000000000000000000000000000000081
:104F8000C3FE0000000000000030C000FFF00C79FC
:104F9000C00C1F800C7FE03FE0600CC0300CFC3088
:104FA00004C03007C0301E60603C3FC0041C0004D9
:104FB0007FE000FFE00030C0006060000000000003
:104FC00000000000000000000000CAE40000000033
:104FD00000000C03800C0FC0081C703F70001F9F66
:104FE000C0101FC0100000367C3017E6301FE3B041
:104FF000067FB00277F007E3F03F7FF01336F0034F
:1050000026300326300000000000000000000000F1
:1050100000000000C8EB00000000000006000003D4
:10502000800001C00000E00000700000780000CCAB
:105030000000C6000183000301800700C00600E0F5
:105040000C00701800301800003000000000000054
:105050000000000000000000000000000000000050
:105060000000000000000000000000000000000040
:105070000000000000000000000000000000000030
:105080000000000000000000000000000000000020
:105090000000000000000000000000000000000010
:1050A0000000000000000000C850000800000020C0
:1050B00024000000D42B0008EC500008240000203D
:1050C00004020000E42B00080000000000000000C3
:1050D00000000000000001020304010203040607AF
:0C50E0000809020406080000000000009F
:0400000508000131BD
:00000001FF
